02012100820121008201255BANRISUL  07697245000169TEF TI                             SOLICITACAO DE SERVICOS                                                                                                                                                                                                                                                                                                                                                                     01548000000001
40290060584360900414002300000000000000506000006742950032531022477    J891893510001040860066770LOJA DE CALCADOS MARAVILHOSA LTDA  KING CALCADOS                           R JOAQUIM NABUCO,641               CENTRO              93310002NOVO HAMBURGO            RSmarlise sirlei konrad    000000035935207NA029009-1900-00N                                                                                                                                                       000000020
40401060238170100414002200000000000000873000009140000115030838242    J16651559000111          SUELI ODETE BARCADO DE OLIVEIRA    SUELI ODETE BARCADO DE OLIVEIRA         R XINGU,989/LOJA 2                 IGARA               92410720CANOAS                   RSJANAINA                  000005134666693NA040109-1214-18N                                                                                                                                                       000000014
40951061156720500414002400000000000000250000003212950032532436712    J85683653000175          TESTE IMPORTACAO TIPO 4            TESTE IMPORTACAO TIPO 4                 Av. Teste,0 / TESTE                CENTRO              94824320SAOPAULO                 SPTESTE                    000005137536706NE000008-1214-18N                                                                                                                                                       000000021
9000000061000000008000000002000000000000000001000000183000000002000000000                                                                                                                                                                                                                                                                                                                                                                                                          000000259
