02012100420121004200850BANRISUL  07697245000169TEF TI                             SOLICITACAO DE SERVICOS                                                                                                                                                                                                                                                                                                                                                                     01546000000001
80041012600000000000009352077119335J94572765000140NN                                                  0000000000                                                                                                                                                                                                                                                                                                                                                                   000000003
80041400390000000000000236100006197J10261148000133NN                                                  0000000000                                                                                                                                                                                                                                                                                                                                                                   000000022
9000000061000000014000000001000000003000000002000000067000000003000000000                                                                                                                                                                                                                                                                                                                                                                                                          000000153
