02012100920121009201114BANRISUL  07697245000169TEF TI                             SOLICITACAO DE SERVICOS                                                                                                                                                                                                                                                                                                                                                                     01549000000001
7004706856317060041400430000000000000038000000380027J930757600001490962114960SEGILA L ONGARATTO ME              SEGILA L ONGARATTO ME                   AV PROF OSCAR PEREIRA 6100 LOJA B  GLORIA              91712320PORTO ALEGRE             RSJANAINA                  0000000331854542S004101690000000000000229250000017300600-0000-00S                                                                                                                                       000000023
7015206175771040041400430000000000000655200006552035J149631290001001770195359MERCADO RAGAN LTDA ME              MERCADO RAGAN LTDA ME                   AV ESTADOS UNIDOS,218              PARQUE MARECHAL ROND94965150CACHOEIRINHA             RSALIANDRO                 0000051344134262N004101260000000000001049847713351800609-1214-18N                                                                                                                                       000000146
7086019007858070041400430000000000000657800006578035J926822280001271220010917POSTO DE COMBUSTIVEIS JP LTDA      POSTO COMB J P                          R XV DE NOVEMBRO,11                CENTRO              96225000SAO JOSE DO NORTE        RS                         0000053023813673N004140039000000000000055150000916400600-0000-00N                                                                                                                                       000000172
7016006891655000041400430000000000001671700016717035J68487636000143          TESTE IMPORTACAO TIPO 7            TESTE IMPORTACAO TIPO 7                 Av. Teste,0 / TESTE                CENTRO              94824320SAOPAULO                 SPTESTE                    0000051369214822N004104410000000000000044780000447802109-1214-18N                                                                                                                                       000000187
9000000061000000015000000001000000000000000002000000155000000012000000000                                                                                                                                                                                                                                                                                                                                                                                                          000000248
