02012100820121008000000BANRISUL  07697245000169TEF TI                             SOLICITACAO DE SERVICOS                                                                                                                                                                                                                                                                                                                                                                     01548000000001
2123401234567890041400230000000000000057600000755J054737470001800963024540Alcides Aurino F de Carvalho       Farmacia Bom Jesus                      Avenida Protasio Alves,4670/Loja 2 Petropolis          91310000Porto Alegre             RSAdilson                  0000051333436271S00508-1013-15NOrdem de Servico para ser cancelada!              0000000000                                                                                                                000000001
2123401234567890041012600000000000000107477134329J896167420001500123456789Ivone Silveira Sanhudo ME          Bazar Santa Rita                        Av. Juca Batista, 2094, Terreo     Cavalhada           91770000Porto Alegre             RSIvone                    0000051504321081S00508-1013-15NOrdem de Servico para ser cancelada!              0000000000                                                                                                                000000002
2123401234567890041400430000000000002354900023549J903812110004570123456789Sup Palavicini e Fritzen LTDA      Margel                                  Rua Goias, 509                     Centro              38400064Uberlandia               MGMaria                    0000034944172261S00508-1013-15NOrdem de Servico para ser cancelada!              0000000000                                                                                                                000000009
9000000061000000008000000002000000000000000001000000183000000002000000000                                                                                                                                                                                                                                                                                                                                                                                                          000000259
