02012100320121003201147BANRISUL  07697245000169TEF TI                             SOLICITACAO DE SERVICOS                                                                                                                                                                                                                                                                                                                                                                     01545000000001
11001PDV                 PDV                           PDVMICROS PC                                                                                                                                                                                                                                                                                                                                                                                                                000000053
11002HYPERCOM            ICE 5000                      POSHYPERCOM ICE5000                                                                                                                                                                                                                                                                                                                                                                                                         000000054
1241PENDENTE NO ESTABELECIMENTO                                                                                                                                                                                                                                                                                                                                                                                                                                                    000000245
1242PENDENTE NA AGENCIA                                                                                                                                                                                                                                                                                                                                                                                                                                                            000000246
1299NOK - OUTRO                                                                                                                                                                                                                                                                                                                                                                                                                                                                    000000247
9000000061000000016000000001000000001000000001000000030000000002000000000                                                                                                                                                                                                                                                                                                                                                                                                          000000114
