02012100820121008201255BANRISUL  07697245000169TEF TI                             SOLICITACAO DE SERVICOS                                                                                                                                                                                                                                                                                                                                                                     01548000000001
60041400230000000000000057600000755J0547374700018022012-10-08solicitacao da agencia                            0000000000                                                                                                                                                                                                                                                                                                                                                          000000021
60041012600000000000000107477134329J8961674200015022012-10-08cliente desistiu                                  0000000000                                                                                                                                                                                                                                                                                                                                                          000000006
60041400430000000000002354900023549J9038121100045722013-10-08cliente desistiu                                  0000000000                                                                                                                                                                                                                                                                                                                                                          000000031
9000000061000000008000000002000000000000000001000000183000000002000000000                                                                                                                                                                                                                                                                                                                                                                                                          000000259
